:020000040800F2
:100000002082052005030008EDB90008BB92000816
:1000100075B90008BB19000871F60008000000005F
:1000200000000000000000000000000021BE0008E9
:1000300059210008000000004DBD0008A9BE0008BD
:100040001F0300081F0300081F0300081F03000808
:100050001F0300081F0300081F0300081F030008F8
:100060001F0300081F0300081F0300081F030008E8
:100070001F0300081F0300081F0300081F030008D8
:100080001F0300081F0300081F0300081F030008C8
:100090001F0300081F0300081F0300081F030008B8
:1000A0001F0300081F0300081F0300081F030008A8
:1000B0001F03000815E400084DE400081F030008B2
:1000C0001F0300081F0300081F0300081F03000888
:1000D0001F0300082DF600081F0300081F03000877
:1000E0001F0300081F0300081F0300081F03000868
:1000F0001F0300081F0300081F0300081F03000858
:100100001F0300081F0300081F0300081F03000847
:100110001F0300081F0300081F0300081F03000837
:100120001F0300081F0300081F0300081F03000827
:100130001F0300081F0300081F0300081F03000817
:100140001F0300081F0300081F0300081F03000807
:100150001F0300081F0300081F0300081F030008F7
:100160001F0300081F0300081F0300081F030008E7
:100170001F0300081F0300081F0300080000000001
:100180001F0300081F0300081F0300081F030008C7
:100190001F0300081F0300081F0300081F030008B7
:1001A00071B400081F0300081F0300081F030008A4
:1001B0001F0300081F0300081F0300081F03000897
:1001C0001F0300081F030008000000001F030008B1
:1001D0001F0300081F0300081F0300081F03000877
:1001E0001F0300081F0300081F0300081F03000867
:1001F0001F0300081F03000800F002F800F072F867
:100200000AA090E8000C82448344AAF10107DA4571
:1002100001D100F067F8AFF2090EBAE80F0013F051
:10022000010F18BFFB1A43F00103184744190200DD
:10023000641902000A444FF0000C10F8013B13F05F
:10024000070408BF10F8014B1D1108BF10F8015B2F
:10025000641E05D010F8016B641E01F8016BF9D122
:1002600013F0080F1EBF10F8014BAD1C0C1B09D179
:100270006D1E58BF01F801CBFAD505E014F8016BEB
:1002800001F8016B6D1EF9D59142D6D3704700007D
:100290000023002400250026103A28BF78C1FBD88F
:1002A000520728BF30C148BF0B607047662918F05D
:1002B0007485642900F09280782900F0CB8073293E
:1002C00000F0AB85002070471FB518F061FD00F00D
:1002D0001BFE04000020002118F044FDE0601FBD5B
:1002E00010B510BD00F014FF1146FFF7EDFF18F038
:1002F00039FC00F032FF03B4FFF7F2FF03BC18F043
:10030000F4FB00000948804709480047FEE7FEE784
:10031000FEE7FEE7FEE7FEE7FEE7FEE7FEE7FEE7B5
:1003200004480549054A064B70470000ADBE000869
:10033000F90100082076052020820520207805207C
:1003400020780520704700000FB4044910B503AAB7
:10035000029800F067FD10BC5DF814FB100002204D
:100360000FB41CB5074B06AA7B446946009005985C
:1003700000F029FD0020694600F038FD1CBC5DF846
:1003800014FB0000810A000070B50C460546012AE6
:1003900005D02878800600D5EA69002302E0012311
:1003A00005E05B1C934202D2E05C0028F9D1A86909
:1003B000E618C01AA861286A184428622846AFF3D4
:1003C000008004E0D5E9012114F8010B9047B44204
:1003D000F8D32846AFF3008070BD00002DE9F0414E
:1003E0000646002410687529314616A510D0AFF3D3
:1003F0000080002802DA404213A507E031688A072E
:1004000001D512A502E0490704D511A5012401E098
:10041000AFF3008000210A2206F1240709E0B0FBB7
:10042000F2FCB0FBF2F302FB1C00303078541846AB
:10043000491C0028F3D123462A463046BDE8F04146
:1004400000F055BA000000002D0000002B00000055
:100450002000000070B504460D4621461068AFF339
:1004600000802188090502D50F4A7A4402E00E4A2D
:100470007A440E32002104F1240305E000F00F0657
:100480000009965D5E54491C0028F7D120780023AE
:10049000000704D5702D02D009B102231132204685
:1004A000BDE8704000F023BA821502002DE9F04744
:1004B0004FF0000A89460446C0F820A02046E168B3
:1004C0008847002876D0252806D0D4E90121904716
:1004D000206A401C2062F1E7E16820460025884739
:1004E000C4F81CA006460027C4F818A02A2E09D07C
:1004F000304618F0F3FA38B304EB8708303EC8F8FA
:10050000186019E059F8041B204604EB870291613A
:10051000E1688847012F064618D1E069002820DAF3
:1005200025F020051DE0D8F8180000EB800006EB50
:1005300040003038C8F818002046E1688847064671
:1005400018F0CCFA0028EED1012F0AD02E2E08D1B7
:100550002046E16888477F1C0646022F45F02005AB
:10056000C4DBA069002803DA404245F00105A06120
:10057000E80701D025F01005B6B1A6F14100192811
:1005800002D8203645F400654A46314620462560AB
:100590004D46FFF78BFE58B1012806D0ED1D25F022
:1005A000070000F1080989E704E005F1040985E77F
:1005B00030468AE7206ABDE8F08740EA010310B5BB
:1005C0009B070FD1042A0DD310C808C9121F9C42E3
:1005D000F8D020BA19BA884201D9012010BD4FF0D5
:1005E000FF3010BD1AB1D30703D0521C07E0002022
:1005F00010BD10F8013B11F8014B1B1B07D110F87F
:10060000013B11F8014B1B1B01D1921EF1D1184681
:1006100010BD40EA0103024630B59B0710D14FF0F0
:10062000013400E008C208C91D1B9D4315EAC41F20
:10063000F8D013F0FF0102F8011B0DD01B0AF8E7F8
:1006400011F8013B002B02F8013B05D011F8013BEA
:10065000002B02F8013BF3D130BD10B5431C02E082
:1006600010F8011B71B18107FAD14FF0013202C8B5
:100670008C1A8C4314EAC211F9D0C01A0A0603D0AE
:10068000C01E10BDC01A10BD0A0401D0801E10BDCE
:100690000902FCD0401E10BD032A40F2308010F049
:1006A000030C00F0158011F8013BBCF1020F62440D
:1006B00098BF11F801CB00F8013B38BF11F8013B9E
:1006C000A2F1040298BF00F801CB38BF00F8013B4B
:1006D00011F0030300F06780083AC0F0088051F879
:1006E000043B083A51F804CBA0E80810F5E7121DC6
:1006F0005CBF51F8043B40F8043BAFF30080D207E5
:1007000024BF11F8013B11F801CB48BF11F8012BB0
:1007100024BF00F8013B00F801CB48BF00F8012BD3
:100720007047431A28BF9A427FF6B6AF032A104497
:10073000114440F2268010F0030F1EBF11F8013D56
:10074000521E00F8013D10F0030F7FF4F6AF11F0D8
:10075000030300F08C83083AC0F00B8051F8043D8D
:10076000083A51F804CD40F8043D40F804CDFFF7B5
:10077000F3BF121D5CBF51F8043D40F8043DAFF3D8
:100780000080D20724BF11F8013D11F801CD48BF08
:1007900011F8012C24BF00F8013D00F801CD48BF3D
:1007A00000F8012C704710B5203AC0F00B80B1E87A
:1007B0001850203AA0E81850B1E81850A0E8185096
:1007C000BFF4F5AF5FEA027C24BFB1E81850A0E89F
:1007D000185044BF18C918C0BDE810405FEA827CB9
:1007E00024BF51F8043B40F8043B08BF7047D207D0
:1007F00028BF31F8023B48BF11F8012B28BF20F871
:10080000023B48BF00F8012B704702F0FF0343EAA8
:10081000032242EA024200F056BB4FF0000200B54C
:10082000134694469646203922BFA0E80C50A0E813
:100830000C50B1F12001BFF4F7AF090728BFA0E8C1
:100840000C5048BF0CC05DF804EB890028BF40F88D
:10085000042B08BF704748BF20F8022B11F0804FCF
:1008600018BF00F8012B70474FF0013C50F8042BE3
:1008700051F8043B9A4215D1A2EB0C03934313EABF
:10088000CC130BD150F8042B51F8043B9A4209D1F8
:10089000A2EB0C03934313EACC13E7D04FF0000014
:1008A000704700BFD01A01BAB1FA81F101F0180106
:1008B00022FA01F0CB40C1F12001DBB2C0B2C01A74
:1008C0002CFA01F3D11A914311EAC311E6D1704712
:1008D000704770477047704710B500F019FB00680B
:1008E00010BD10B5044600F013FB046010BD2DE9E7
:1008F000F0470D4699469246044600F124080168E7
:10090000880604D5E06921F01001216000E0012093
:10091000A84201DD471B00E00027A1697A1902EB1C
:100920000900081AA0612078C00602D42046AFF35F
:100930000080002608E0D4E901211AF8060090475B
:10094000206A401C761C20624E45F4DB2078C006ED
:100950000AD52046AFF3008006E0D4E9012130201B
:100960009047206A401C2062381EA7F10107F4DC82
:1009700007E0D4E9012118F805009047206A401CDF
:100980002062281EA5F10105F3DC2046AFF30080AC
:100990002078000602D50220BDE8F0870120FBE7A1
:1009A00070472DE9FF4F0C461E464FF0FF378BB0C6
:1009B000D2E90001DDF860800A908A46C1F30A5549
:1009C00005B93D46002108464FF00000BAF1000F7E
:1009D00000F4400005DA00EB80004FF4400101EA2A
:1009E00050004FEA9059B9F1010F00DDB9460A985D
:1009F00050EA4A000ED044F61050A5F2FF354543A8
:100A00002F14B8F1000F1ED07542291E1EDDC9F14A
:100A100000021CE0B8F1010F4FF0000001D03021BE
:100A200003E0F24305E02154401CB042FBDB3046BA
:100A30000022002121540B99C1F80880C1E900204F
:100A40000FB0BDE8F08FBD1B6D1CDEE74A4600DA33
:100A5000694206A800F0E6FA06AB93E8070003AB8C
:100A600083E8070050460A9900F080FB8DE80700F4
:100A7000A0F500501F3800900398002D09DD42F2C8
:100A80001F014A46084403A90390684600F0DFFDB1
:100A900008E0A0F500504A461F3803A903906846B5
:100AA00000F0E9FD8DE807000004000C03D04FF0D2
:100AB000FF30410800E01046B8F1000F03D00022DB
:100AC000009215461EE0751E05D400F025FA30325E
:100AD00062556D1EF9D5B3460122084302D00022AB
:100AE0007F1C04E02078302801D100227F1E002ADC
:100AF000099786D01DE0112D07DA00F00DFA30328B
:100B000062556D1C50EA0102F5D1084302D00098ED
:100B1000C8B10EE00021681E05E0235C625C6354EE
:100B20002254401E491C8142F7DBAB46A81B401EE5
:100B30000990002004F80B000B98099AC0F808806F
:100B4000C0E9002B7CE711264FF0000859E72DE99A
:100B5000F04F88460446D21D22F0070191B0D1E93A
:100B60000001CDE90A0117F0A8FE02460B98C00F5C
:100B700001D02D2007E02068810701D52B2002E05D
:100B8000202101EAC000032A099001D0072A05DBD1
:100B900003464146204600F005FA0BE12078800626
:100BA00001D5E06900E00620B8F1650F814606D066
:100BB000B8F1660F18D0B8F1670F70D131E000209E
:100BC000B9F1110F009001DB112301E009F10103DC
:100BD0000AAA01A90CA8FFF7E4FEDDE90C700026C3
:100BE00009F10105834647E001204B4600904FF094
:100BF00000470AAA01A90CA8FFF7D3FEDDE90DB052
:100C00000C995D46002610B909F101000D18B9EBE9
:100C1000050003D4C0F1FF3609F10105A5EB090079
:100C20002BE0B9F1010F01DA4FF001090020B9F111
:100C3000110F0090484601DD112300E003460AAA87
:100C400001A90CA8FFF7ADFEDDE90C704D460026AA
:100C50008346207800070AD4AB4500DA5D4601A838
:100C6000012D04DD411911F8011C302907D04F4531
:100C700002DA17F1040F04DA012082460FE06D1E3C
:100C8000EEE7002F02DCED1B3E4403E0781CA84297
:100C900000DD7D1CB81B00F1010A4FF000472078F1
:100CA000000703D4AA4501DB4FF0FF3A0021B7F15A
:100CB000004F0DF143088DF8431024D002202B2360
:100CC000002F01DA7F422D230A21021EA0F101002C
:100CD00000DC5FB197FBF1FC97FBF1F201FB1C7CA0
:100CE00017460CF1300C08F801CDEEE7A8F1010031
:100CF00003702188090501D5452100E06521A0F197
:100D0000010800F8011C09980FA9A1EB0807FF1DB5
:100D100000B10120411901EBEA70A1693844081AB9
:100D2000401EA0612078C00602D42046AFF30080A8
:100D3000099828B1D4E901219047206A401C20621B
:100D40002078C00622D52046AFF300801EE0002E9A
:100D500004DBB34502DD01A8805D00E03020D4E96A
:100D600001219047206A401C2062761CAAF10100F4
:100D70005FEA000A0AD100F0C7F8C0680168405C69
:100D8000D4E901219047206A401C2062281EA5F169
:100D90000105DCDC07E0D4E9012118F8010B9047DC
:100DA000206A401C2062381EA7F10107F3DC2046B0
:100DB000AFF30080032011B043E6000001694A1C34
:100DC00002610878704700B58FB0CDE9013100218C
:100DD000059105497944CDE9031011466846FFF7AE
:100DE00065FB0FB000BD0000E5FFFFFF0A6802F8D9
:100DF000010B0A60704710B5436913B1AFF300806F
:100E000001E0FFF7C1FA012010BD127800F12401C2
:100E10000A7000224A700122EDE711684FF0FF329C
:100E2000E9E70000074B70B50D467B44FFF7CBFFA9
:100E30000446284600F064F910B14FF0FF3070BD51
:100E4000204670BD237D0100431A28BF9A427FF6D9
:100E5000AAAC104410F0030F11441EBF11F8013D5D
:100E6000521E00F8013D10F0030F7FF4F6AF103A68
:100E7000C0F00A8010B531E91850103A20E9185036
:100E8000BFF4F9AFBDE81040530724BF31E90810A3
:100E900020E9081044BF51F8043D40F8043D12F029
:100EA000030F08BF7047D20728BF31F8023D48BF83
:100EB00011F8012C28BF20F8023D48BF00F8012C92
:100EC00070474FF000020429C0F0128010F0030CAC
:100ED0003FF4A5ACCCF1040CBCF1020F18BF00F834
:100EE000012BA8BF20F8022BA1EB0C01FFF797BC48
:100EF0005FEAC17C24BF00F8012B00F8012B48BF3A
:100F000000F8012B7047000000487047E07505208D
:100F100000487047C075052030B5B0F10A024FEAAD
:100F2000900E71F100034EEA817EB0EB0E0061EB92
:100F300091014FEA101E4EEA017E10EB0E0041EBCC
:100F400011114FEA102E4EEA016E10EB0E0041EB2C
:100F500011214FEA104E4EEA014E10EB0E0041EB0C
:100F60001141401841F100014FEAD00040EA4170C0
:100F70004FEAD10110EB80054FEA810444EA9074F6
:100F800044EB01046D1944EB0404521BA3414FF0E0
:100F9000000348BF0A3200D530BD401C41F10001BA
:100FA00030BD00002DE9F0411F46044603260168CC
:100FB000072A01F4006004DB08B116A505E016A5B8
:100FC00003E008B115A500E015A521F01000206090
:100FD000A069C01EA0610FB1401EA0612046AFF302
:100FE00000804FB1D4E9012138469047206A401C67
:100FF0002062C01C206206E0206AFAE7D4E90121E1
:1010000015F8010B9047761EF8D22046AFF300800A
:10101000BDE8F0814E414E006E616E00494E4600C3
:10102000696E66002DE9F047814616468AB033485E
:1010300078440DC88DE80D0030487844801C03AC1E
:101040000DC884E80D0041F69B300844372190FB21
:10105000F1F290FBF1F5A5F1800501FB12041B3CB8
:1010600002D56442012000E00020DFF890A0804615
:101070000027FA44AAF1BE0A0DE0E00709D0324683
:10108000684607EB47010AEB810100F0F4FA8DE8AE
:10109000070064107F1C002CEFD1184F7F44AC3F39
:1010A00018E0E80714D007EB04100DF1180A90E8D7
:1010B0000E008AE80E00C068F04201D1981908902D
:1010C000324606A903A800F0D6FA03AB83E807006E
:1010D0006D10641C002DE4D132466946B8F1000F52
:1010E00003A802D000F0B3FA01E000F0C4FAC9E9A5
:1010F0000001C9F808200AB0BDE8F087600A0200C4
:10110000007B00F08000704700487047C0750520E4
:101110007546FFF7F9FFAE4605006946534620F0D5
:101120000700854618B020B5FFF7FAF8BDE8204063
:101130004FF000064FF000074FF000084FF0000B93
:1011400021F00701AC46ACE8C009ACE8C009ACE846
:10115000C009ACE8C0098D46704710B50446AFF32E
:1011600000802046BDE81040FFF7C5B85FEA400C9C
:1011700008BF91F0000F4FEA8C234FEAC12243EAE7
:1011800051514FEA1C5018BF00F5F0404FEA3000B3
:1011900018BF41F000415FEA6C5C00F02980BCF1AF
:1011A000FF3F08BF40F080407047130C06BF120499
:1011B0004FF0100C4FF0000C130E04BF12020CF194
:1011C000080C130F04BF12010CF1040C930F04BFA1
:1011D00092000CF1020CD30F04BF52000CF1010C71
:1011E00011464FF00002A0F11F00A0EB0C00704769
:1011F00011F0004F08BF704731F000413FF4D5AF08
:101200000B0C06BF09044FF0100C4FF0000C0B0E36
:1012100004BF09020CF1080C0B0F04BF09010CF10B
:10122000040C8B0F04BF89000CF1020CCB0F04BF20
:1012300049000CF1010CCCF12003A0EB0C0022FAC8
:1012400003F302FA0CF241EA030100F101007047D6
:1012500020F07F4C80EA030023F07F47ACEB0703CC
:1012600003F57C5300F0004003F1FF032DE98049B2
:101270004FEA154B09B44FEA144325EA0B4E24EA12
:1012800003480FF2042606EB132749083E785FEA6D
:10129000320203FB0667C7F5000707FB06F64FEAB5
:1012A00054374FEAD64606F1020607FB066CCCF12E
:1012B000005C4FEA1C472CEA074C07FB06F40CFBCA
:1012C00006F504EB15464FEA961634BF00204FF0A2
:1012D00000404FEAD13706FB07FC4FEA1C4C0CFBE1
:1012E0000BF7D21B03FB0CF761EB07010CFB0EF7AE
:1012F000B0EB074072EB17420CFB08F734BFA2EBD0
:101300000742B2EB074261EB17414FEA0C444FEA48
:10131000910706FB07FC4FEA1C4C0CFB0BF7B0EBEC
:10132000C74072EB573203FB0CF734BFA2EBC74246
:10133000B2EBC74261EB57310CFB0EF7B0EBC700C5
:1013400072EB57720CFB08F734BFA2EBC702B2EB8B
:10135000C70261EB5771039F4FEA816141EA921125
:1013600004EBCC044FEAD1374FEA826206FB07FC5C
:1013700042EA90124FEA80604FEA1C4C0CFB0BF7DC
:10138000D21B03FB0CF761EB07010CFB0EF7B0EB74
:10139000074072EB17420CFB08F734BFA2EB074281
:1013A000B2EB074261EB17414FEA8C554FEA9107C8
:1013B00004EB9C2406FB07FC4FEA1C4C0CFB0BF7D0
:1013C000B0EBC74072EB573203FB0CF734BFA2EB14
:1013D000C742B2EBC74261EB57310CFB0EF7B0EBE3
:1013E000C70072EB57720CFB08F734BFA2EBC702C1
:1013F000B2EBC70261EB577115EB4C254FEA8161E7
:1014000041EA92114FEA82624FEAD13742EA9012E2
:1014100006FB07FC44F100044FEA80604FEA1C4CD5
:101420000CFB0BF7D21B03FB0CF761EB07010CFB6A
:101430000EF7B0EB074072EB17420CFB08F734BF16
:10144000A2EB0742B2EB074261EB174115EB1C150B
:101450004FEA813141EA92414FEA823242EA9042B8
:101460004FEA80304FEA0C7644F1000448EA034327
:101470004EEA0B484FF0000EB2EB080C71EB03077D
:1014800024BF624639464EEB0E0E4FF0000B00189B
:10149000524149414BEB0B0BB2EB080C71EB0307CC
:1014A0007BF1000B24BF624639464EEB0E0E4FF027
:1014B000000B0018524149414BEB0B0BB2EB080CEF
:1014C00071EB03077BF1000B24BF624639464EEBFC
:1014D0000E0E51EA020718BF46F0010616EB0E7613
:1014E00055F1000254F1000103D5BDE88901BDE8C2
:1014F0000088BDE88901BDE80048B619524141EBBA
:101500000101A3F10103704780807F7E7D7C7B7A9F
:101510007978777676757473727171706F6E6E6D9F
:101520006C6C6B6A6A696868676666656464636345
:1015300062616160605F5F5E5E5D5D5C5C5B5B5ACB
:101540005A59595858575756565555555454535338
:1015500052525251515050504F4F4F4E4E4D4D4D93
:101560004C4C4C4B4B4B4A4A4A49494948484847DE
:10157000474747464646454545444444444343431C
:101580004342424242414141002B26D4770021D0C0
:101590001CB54FEA370703B44FF010004FF01001AD
:1015A0004FF000000FBCBDE810400BF1010BBBF188
:1015B000010F08BF5FEA170722BF12F1010211F104
:1015C00001014FF0004143F1000300F0004043EA05
:1015D00000007047F9D35708DAE746EA064613F1E8
:1015E000400F4FEA16461FDD13F1200FDFBF1643F1
:1015F0000A46002120335B42C8D0C3F1200746EAE7
:10160000064602FA07F74FEA164646EA0706C3F10E
:10161000200722FA03F201FA07F721FA03F14FF04B
:10162000000342EA0702B1E746EA020646EA064636
:101630004FEA164646EA0106BCBF46EA0646360CA5
:101640004FF000034FF000024FF000019EE72DE93C
:10165000C048934630B491E8380007C831EA400CDE
:1016600048BF34EA430C03D5FFF7F2FDFFF78CFFC8
:10167000F0BCBDE800882DE9C048934630B491E83D
:10168000380007C810F0804F08BF13F0804F03D117
:1016900000F005F8FFF778FFF0BCBDE8008820F007
:1016A0007F4780EA030023F07F4C07EB0C03A3F590
:1016B0007C5300F00040A3F1FE0392F0000F00F015
:1016C000B38095F0000F00F077802DE901494FEAD3
:1016D00011404FEA144621EA004800FB06FC24EAC8
:1016E000064708FB06F607FB08F800FB07F718EBB0
:1016F00006484CEB164C4FEA124B18EB07484FEAE2
:1017000015464CEB174022EA0B4E0BFB06FC25EA74
:1017100006470EFB06F607FB0EFE0BFB07F71EEB5C
:10172000064E4CEB164C4FF000061EEB074E4CEBF2
:10173000174B18EB0B0840F1000018EB0E0B58EBA1
:10174000000840F100008F1A4FF000013CBFC94370
:10175000661B14BFB5EB040C00213CBFC943F61B4C
:101760004FEA17444EEA8E0E27EA04454FEA1C471B
:1017700004FB07622CEA074C05FB07F70CFB05F698
:1017800004FB0CFC16EB074642EB174216EB0C462B
:1017900042EB1C421BEB060658EB0202414146EAB3
:1017A0009E0601D5BDE80189B619524141EB010100
:1017B000A3F10103BDE801894FEA14454FEA11473F
:1017C00024EA054621EA074C05FB07F406FB07F768
:1017D0000CFB06F105FB0CFC11EB074144EB174435
:1017E0004FEA124711EB0C4144EB1C4422EA074C30
:1017F00005FB07F206FB07F70CFB06F605FB0CFCE6
:1018000016EB074642EB174216EB0C4642EB1C4523
:101810006A1854F1000148BF7047B619524141EBB4
:101820000101A3F10103704795F0000F37D04FEA93
:1018300011424FEA144721EA024624EA074C02FB10
:1018400007F106FB07F70CFB06F402FB0CFC14EB9C
:10185000074441EB17414FEA154714EB0C4441EBA9
:101860001C4125EA074C02FB07F506FB07F70CFBBA
:1018700006F602FB0CFC16EB074645EB174516EB8C
:101880000C4645EB1C42121951F1000148BF70474C
:10189000B619524141EB0101A3F1010370474FEA30
:1018A00014454FEA114724EA054621EA074C05FB97
:1018B00007F106FB07F70CFB06F24FF0000605FBED
:1018C0000CFC12EB074241EB174112EB0C4251EBBF
:1018D0001C4148BF7047921841EB0101A3F101037D
:1018E000704707F017BD2DE9F0410D460146002075
:1018F0004E19044608E00702301B401E80B200F07B
:1019000007F8641C3844E4B2AC42F4D3BDE8F0817B
:1019100010B5044607F0BEFD200AA02101EB4000EF
:10192000C0B207F081FD07F00FFEE0B207F07CFDCA
:1019300007F00AFE07F0AEFDA12007F075FD07F0E5
:1019400003FE002007F036FD044607F0D1FD2046D7
:1019500010BD2DE9F041002416460D46074609E06A
:10196000E00025FA00F0C1B2381980B200F006F8A4
:10197000641CE4B2B442F3D3BDE8F08170B50D4607
:10198000044607F087FD200AA02101EB4000C0B209
:1019900007F04AFD07F0D8FDE0B207F045FD07F07B
:1019A000D3FD284607F040FD07F0CEFD07F0A0FD6F
:1019B000BDE870400A2017F0A3B8FEE770B5144DDB
:1019C00000224021284605F050FE124C206820F0ED
:1019D000C0002060206840F040002060022017F026
:1019E0009DF800222046082105F03FFE022017F056
:1019F00095F801222846402105F037FE022017F015
:101A00008DF82846BDE870400022402105F02DBE2B
:101A1000001C024000200240124800B587B0016857
:101A200041F080010160016801F0800105910168C9
:101A300041F4807101600068694600F4807005908F
:101A4000402000900120019002900320039006485E
:101A500005F018FD082000900448694605F012FDC5
:101A600007B000BD30380240001C02400020024098
:101A700070B5144D00224021284605F0F6FD124CA9
:101A8000206820F0C0002060206840F04000206006
:101A9000022017F043F801222046082105F0E5FD59
:101AA000022017F03BF801222846402105F0DDFD19
:101AB000022017F033F82846BDE87040002240218C
:101AC00005F0D3BD001C0240002002402DE9F0418A
:101AD000184E07460024306820F0C000306030689F
:101AE00030601E2017F01AF8B046134E0025002271
:101AF0003046402105F0B9FD022017F00FF8012211
:101B00003046402105F0B1FD60060821040E404634
:101B100005F0A6FD08B1641CE4B26D1CEDB2082D01
:101B2000E5D327B1FFF74AFF2046BDE8F081FFF774
:101B30009FFFF9E700200240001C02402DE9F04120
:101B40001A4F0546386820F0C0003860386840F009
:101B500040003860164E00224021304605F085FDD9
:101B6000022016F0DBFF0024280601D5012200E048
:101B700000223846082105F078FD68060122050E8E
:101B80003046402105F071FD022016F0C7FF00220B
:101B90003046402105F069FD022016F0BFFF641CAD
:101BA000E4B2082CE0D3BDE8F08100000020024040
:101BB000001C024070B5134C206820F0C00020606B
:101BC000206840F04000206001222046082105F0F6
:101BD0004CFD0D4D01224021284605F046FD1E20FA
:101BE00016F09CFF00222046082105F03EFD022051
:101BF00016F094FF2846BDE870400022402105F011
:101C000034BD000000200240001C024010B5104C02
:101C1000206820F0C0002060206840F04000206074
:101C20000C480122402105F020FD1E2016F076FF11
:101C300000222046082105F018FD022016F06EFF54
:101C400001222046BDE81040082105F00EBD00002D
:101C500000200240001C024070B5164D00242846AA
:101C6000296821F0C0012960296829600122082122
:101C700005F0FBFC104E01224021304605F0F5FC3A
:101C800007E0641CE4B2FA2C03D9FFF7BFFF012080
:101C900070BD022016F042FF0821284605F0E0FC46
:101CA0000028EED100223046402105F0DEFC002065
:101CB00070BD000000200240001C0240FEB5154629
:101CC0000C46064605F03CFB0B4FC6EBC60257F828
:101CD000223000FB043100FB053007EB82040023B7
:101CE0002269CDE9002302930246E368304600F002
:101CF000BFF9A560FEBD000000B304202DE9FE4F32
:101D0000984616460F460546DDF838A0DDE90C94E6
:101D100005F016FB11490246C5EBC50051F820C07D
:101D200001EB80004168C36802FB01C106FB037739
:101D30004669406807FB061102FB00C709FB0380E8
:101D4000CDF800A000FB06720026181B2346CDE943
:101D50000106284600F08CF9BDE8FE8F00B3042090
:101D60002DE9F0471D4614460F468046DDE9086A16
:101D700002F090FE012831D0ED1B4046361B6D1C51
:101D8000761C05F0DDFA224B0146C8EBC80053F87B
:101D9000202003EB8000836801FB0322C1684069B7
:101DA000A1EB050904FB0173002403FB0027404657
:101DB000D04608F075FA1849164A0A60C1F838800A
:101DC000CF63C1F84090486365F31F464E640868CE
:101DD00040F0010008604FF4001214E00022404679
:101DE000192108F045FE33462A462146384608F0B8
:101DF00069F84046094ABDE8F047192108F038BEA5
:101E0000641C944202D20868C007F9D1BDE8F0878B
:101E100000B304200002030000B00240611D00086E
:101E2000F0B5BFF34F8FBFF36F8F184900200860E4
:101E3000174C216841F400312160BFF34F8FBFF38D
:101E40006F8F134970310860BFF34F8F081F006810
:101E500043F6FF750D4E1036C0F34E31C0F3C90383
:101E600005EA4112184642EA80773760401EFAD2EE
:101E7000491EF5D2BFF34F8F206840F480302060B8
:101E8000BFF34F8FBFF36F8FF0BD000050EF00E046
:101E900014ED00E038B50324009400F0B5F838BD27
:101EA00038B50424009400F0AFF838BD38B50024EC
:101EB000009400F0A9F838BD38B50024009400F073
:101EC000A3F838BD1CB50DF0F1FF0346084A002009
:101ED000009001900521074802F036F904460DF004
:101EE000DAFF0023642219460DF0ACFD20461CBD2C
:101EF000A1890108F8D5010830B5B7EEC01A2DED5B
:101F0000028B87B00446B0EE608A1AA1684653EC93
:101F1000112BFEF725FA606840F601010DF0DCFF99
:101F20000546694600F0FFFA0E21284600F063FBE3
:101F30001249284600F0E3FAB7EEC80A0DA103A83B
:101F400053EC102BFEF70CFA606840F602010DF01E
:101F5000C3FF03A9044600F0E6FA0E21204600F074
:101F60004AFB0649204600F0CAFA07B0BDEC028BD6
:101F700030BD0000252E326600000000D8030208A4
:101F800070B51C4615460E460A491A4607F026FB50
:101F900009492246304607F021FB084A23460649F4
:101FA000044800F00DF822462946BDE87040034879
:101FB00007F014BB1CF304201C3305201CB30420C1
:101FC00070B5104D00240E4E2E60E8606961EA6322
:101FD0002C61AC612C64EC616C626C63012000EBE1
:101FE00003406864286840F0010028604FF4001145
:101FF00002E0641C8C4202D22868C007F9D170BD8F
:102000000002020000B00240F8B514460E46064930
:10201000069D07F0EAFA044800222B463146009458
:1020200000F004F8F8BD00001CB30420F0B50F4D1B
:1020300000244FF48137059E2F60E860E9632C612E
:102040002C64EA616B63012000EB06406864286839
:1020500040F0010028604FF4001102E0641C8C4243
:1020600002D22868C007F9D1F0BD000000B00240DC
:102070002DE9F0470F461D4608A91646002491E8B1
:10208000000708F00DF90E494FF400720A60CF60A6
:10209000CE63C1F81090C1F840A0C861404665F316
:1020A0001F404864086840F001000860120302E025
:1020B000641C944202D20868C007F9D1BDE8F087D9
:1020C00000B0024038B514460D4606490023049A74
:1020D0000094FFF7ABFF22462946BDE8384001488F
:1020E00007F083BA1CB304201EB50023FF24B4EB11
:1020F000116F2CD080F07F40009081F07F400190E4
:10210000144813490160C0F80CD001A9416102A92B
:10211000C1634FF4803141EA0261C161C2F1FF0144
:1021200009064162002141634FF0011141640168D9
:1021300041F0010101604FF4001202E05B1C934288
:1021400002D20168C907F9D1029880F07F401EBD14
:102150000002020000B0024070472DE9FC470E4625
:102160005FEA00097FD002F071FD484601F0B8FE39
:10217000009090F85470D0F85880456BC46C684655
:1021800001F018FFB8F1000F04D03146484642462E
:10219000904761E0122E18D006DC082E43D0102E96
:1021A0003CD0112E06D112E0132E21D01D2E43D08B
:1021B0001E2E3DD0202E4FDB17B148460FF06BFF8F
:1021C000B1B2484614F052FB60B3611C27E04DB336
:1021D000284601F085FE05462146019003F0CAFF1E
:1021E0004419204603F074FF01462346012210E003
:1021F000C5B1284601F074FE05462146019003F062
:10220000B9FF4419204603F063FF014623464FF00F
:10221000FF3248460FF018FC01A81BE0611E48463B
:1022200000F0FEF918E0BCB1611E484600F0F8F974
:1022300048460FF030FF0FE0484601F051FE009095
:10224000012F12D0012180F854102146484600F099
:10225000E7F9684601F0AEFE48460EF07BF900E073
:1022600001E004F099F8BDE8FC87002180F85410E3
:10227000EFE7FEB54468054620460EF07BFF0646B4
:10228000294620460DF0F5F9002837D028680F2898
:1022900030D004DC0B2832D00E2853D13AE0A0F520
:1022A0008070133804D0A0F580702D384AD110E02A
:1022B00020460EF0C3FA2046002114F077FD204698
:1022C00001F00EFE0190C06F00210EF08EFA01A801
:1022D0001DE0E86860B1017A29B10168204600F08C
:1022E000AFF8012100E0022120460EF0C6F929E0F6
:1022F0000321F9E70121204614F058FDFEBD2046D8
:1023000001F0EEFD0090343001F04EFD684601F022
:1023100051FE17E0B6B1E8684168002912DD016896
:102320001B290FD006DC09290CD00A290AD00D2957
:1023300004D107E0212905D0222903D02046FFF748
:102340000CFFFEBD28460DF063FCFEBDF0B587B066
:1023500004460DF1080CD4E90567B0F90850408A2D
:102360008CE8E1000020CDE90010B4F90C00B4F9CC
:102370001060C118B4F90A00B4F90E501044334685
:102380002A4600F009F8050002D0618A00F033F90E
:1023900007B02846F0BD00002DE9F04F85B01F467C
:1023A000DDE91254DDE90E6A90468946834602F063
:1023B0004DFC0DF1040C4AF480501F49583400962E
:1023C0008CE813003B464246494658460DF068FBF0
:1023D00004002AD001F084FD1022049011990DF020
:1023E000C1FA04981C2215496030FEF7DCF9049A02
:1023F000012082F85500681C00D0012082F880007E
:10240000002D00DC08252DB2158700205087506371
:1024100004A86D1C01F0CEFD2946204614F013F8E7
:1024200018B920460DF02CFC002403F0B5FF05B0D0
:102430002046BDE8F08F000073220008A4010220AE
:102440002DE9F04186B00C46060055D002F0FEFBA7
:10245000304601F045FD0090406B98B301F040FD1F
:1024600003900098806E03F025FA804630460DF008
:10247000BDFD0746039802F047FB0546009890F81B
:10248000601001F00301012916D002290DD0416E20
:10249000C06A00680844241A641E039804F008FD0A
:1024A0000146002C0FDA002115E0781B401C00EBE0
:1024B000D070A4EB6004F0E7406E791B081A241A70
:1024C000641CEAE713E0AC4205DC024621460398AF
:1024D00004F098FC0146304600F0A2F803A801F091
:1024E00069FD404603F0E6F930460EF033F86846E1
:1024F00001F060FD03F050FF06B0BDE8F08138B593
:102500000D4604000ED002F0A1FB204601F0E8FCCD
:102510000090856620460EF01DF8684601F04AFDE1
:1025200003F03AFF38BD2DE9FC4788465FEA000911
:102530004FF0000652D002F089FB484601F0D0FC73
:102540000090B0F93850446B684601F033FD002725
:10255000B8F1000F44D04CB1204601F0C1FC01900D
:10256000FEF77BF8461C01A801F024FD404604F06C
:102570009FFC0446A84200DD2C462146404603F05D
:10258000F9FD451CA91B484614F00CFA08B348464F
:1025900001F0A6FC0090406B01F0A2FC2A464146E7
:1025A0000190FEF779F80198284400F8017C009822
:1025B000C464B0F938108C4205D190F85410012948
:1025C00001D1641EC46401A801F0F4FC684601F066
:1025D000F1FC48460DF0BEFF03F0DEFEBDE8FC87CF
:1025E000484601F07DFC0090343001F0DDFB00989E
:1025F0004787C764EAE738B50C4605000FD002F0FC
:1026000025FB284601F06CFC009018B104662846B2
:102610000DF0A0FF684601F0CDFC03F0BDFE38BD13
:102620001CB50C4601F05CFC0090406BF0B101F071
:1026300057FC019004F03CFC009991F8542002B141
:102640000122002C00DA0024844200DD0446B1F9A6
:102650003800801AA04200DA0446C86CA04200D0BC
:10266000CC640020086501A801F0A4FC684601F0D4
:10267000A1FC1CBD70B5B3F5804F05D06FF0704163
:1026800040F82210002070BD50F82230084C234042
:10269000D1E900458E8944EA05148D6889692D02C7
:1026A00045EA06452C430C431C4340F82240E9E729
:1026B0000000F0CFF0B50C6850F824501A4A1540CD
:1026C000D1E90123D1E903671A433E4332434E69FE
:1026D00032438E693243CE6932430E6A32434E6AC8
:1026E00032438E6A3243CE6A32430E6B32438E6B74
:1026F00032434E6B32432A43082B01D142F0400251
:1027000040F824200A6BB2F5801F05D10A684AB14F
:10271000026842F4801202600A681AB10268496BCA
:102720000A4302600020F0BD8004C0FF00EB82027B
:10273000F0B553688E8903F04044D1E9003543EA8F
:1027400005138D682D0245EA06450E8A2B430D4D73
:1027500005EB065633430E7D6F0107EB06663343E8
:102760008E693343234353600268D20207D542681F
:10277000098A22F4700205EB0151114341600020E7
:10278000F0BD00000000F0FF30B5D1E901230D6875
:102790001A43D1E9033423431A434B691A438B6923
:1027A0001A43D1E90734496A012D056807D01A4355
:1027B00022430A436FF30E052A4302600AE025F420
:1027C000F845234329430B43416803606FF30E012F
:1027D0000A434260002030BD426942EA4101416142
:1027E00000207047F8B514460546D1E900026FF0A5
:1027F0001F0310438A68C96803EB421242EA412171
:1028000008430090286104F035FF064609E0601C8B
:1028100007D024B104F02EFF801BA04201D9032071
:10282000F8BDA8698006F2D40020F8BDF0B5D1E962
:1028300000346FF00F055B1E2E0105EB04142343DB
:102840008C682F034FEA054C0D8A06EB04248E8A10
:102850002343CC68097E4FF07F4E012A07EB0545E4
:102860000CEB06560EEB01610CD082683F1107EBB2
:10287000043423432B4333430B4302F0704213438E
:1028800083600FE08768084A17402203C468A2F5F6
:10289000805232433A4382602B430B4304F070442E
:1028A0002343C3600020F0BDFF0F0FFF2DE9F04769
:1028B000044640688EB00027804601F011FB00906E
:1028C000B0F87CA0D0F86890D0F88060D0F888503C
:1028D000C06D00B10768684601F06CFB05E06968EF
:1028E00020468847002843D12D68002DF7D1206865
:1028F000172853D00CDC0F283DD004DC0B2877D0F0
:102900000D2825D18BE0112810D0142820D13BE0D0
:10291000262846D004DC1E2851D0202818D18AE071
:102920002A2816D0B0F5107F12D128E04046E5687D
:1029300001F0D6FA0290697A39B9297A012904D1CD
:1029400030F87C1F41F48071018002A801F032FB55
:1029500075E0404601F0C4FA0090E16811B1C0F89A
:10296000841002E0D0F88400E060684601F022FBA9
:102970000EB0BDE8F087D7B34046B8475FE02146C8
:10298000404614F0DBF9F3E705A9404600F00BFBE5
:10299000E0680699016007994160E9E7C4F80C9086
:1029A000E6E7E0680228E3D1CDF83080E0680D90DA
:1029B00027200A900AA9A0680EF0D6FDD8E7E068A3
:1029C000012804D00021404600F0BBFAD0E7304691
:1029D0000DF029FE68B130460EF006F830460DF0D5
:1029E000FFFC98B1012130460CF0D7FE0EE026E046
:1029F0002FE048460EF04CF80646404601F070FACB
:102A00000090C0F88060684601F0D4FA0121404689
:102A100000F097FA002EABD10020E060A8E75FEA53
:102A20000A700CD4E068C06848B1007A38B14046FA
:102A30000DF0DAFF03E02146404614F0D5F82146B8
:102A400040460CF016FE002892D020460DF0E0F82B
:102A50008EE7404601F044FA0090703001F0A4F98E
:102A6000684673E7F0B587B0B0F908400DF10C0C7B
:102A70000C9E876945688CE8F000448A0025CDE902
:102A800000150294B0F90C10B0F91050B0F90E40D6
:102A9000B0F90A00194410442B46224600F002F80F
:102AA00007B0F0BD2DE9F04F8BB09846DDE9155623
:102AB00091468A468346149F1A9C02F0C7F8334811
:102AC000603445F48055CDE90204CDE900754346F4
:102AD0004A46514658460CF0E3FF04004FD001F03F
:102AE000FFF93022049017990CF03CFF049828223B
:102AF00027493430FDF757FE04981999244F416651
:102B0000A0F87C600026C0F88060C666083FC0F868
:102B100088607968C16504A801F04CFA05A92046CF
:102B200000F041FA1B4841F2827103960094CDE90E
:102B30000110BDF91E00BDF91A10BDF91C20431A81
:102B4000BDF918005B1C121A521C0CF0A9FF0646B6
:102B50007868416820468847204601F0C1F9049012
:102B6000866604A801F026FA42F20400054202D16A
:102B700020460DF0FDF82046189900F0F1F903F019
:102B80000BFC0BB02046BDE8F08F0000AD2800081C
:102B9000B40202205F3100082DE9F041044694B0F0
:102BA000006800F0B7F908B1D94D01E0D84D2C35D7
:102BB000606815281ED00CDC0B281FD004DC002810
:102BC0007ED005287DD12FE10E287BD01228F9D1A7
:102BD00041E1162806D0172808D0182808D01C284C
:102BE000F0D109E0E86914B0BDE8F081286AFAE79D
:102BF000686AF8E7A86AF6E76869F4E720680B9066
:102C00001C200C90206801F06BF90390016D0BA85B
:102C10008847064603A801F0CDF9022E0FDB95E8A0
:102C200007008DE80700D4E904023346A16903F0E8
:102C3000B7FF20698719A069A0EB06082CE0286877
:102C400002F01BFE2169E8690A18521E606901F052
:102C500067FDA269E869111A491C606901F060FD0D
:102C6000D4E904077F1C394601F086FD3946A06986
:102C700001F082FD686802F000FE20693946401CC0
:102C800001F07AFDA0693946401E01F075FDA0698A
:102C90002769A0F10208BF1C286802F0EEFD424639
:102CA0003946606901F03CFD686802F0E6FD606944
:102CB00042463946401C01F033FD686A022802E0B2
:102CC00015E1B0E000E10BDDA86802F0D6FD616916
:102CD0006A6A881C8B180146424638465B1E27E00C
:102CE000296AB14226DD6069022E074600F102081A
:102CF00001DB374401E007F10207206901DB3044C2
:102D000001E000F1020022693B460A444146A2F17B
:102D1000010201F0E1FD022E02DBA069821B01E04D
:102D2000A269921EA069E9693B46401A4146401CCF
:102D300001F0D2FD022E02DB6069064401E0666903
:102D4000B61CE76928687F1E02F097FD3A463146B7
:102D5000206901F077FD3A463146A06901F072FD25
:102D6000E7696868BF1E02F088FD20693A4631466F
:102D7000401C01F067FDA0693A463146401E01F053
:102D800061FDE869022802DC286A022823DDA86ABE
:102D9000022802DDE1690F1A01E0E769BF1EA86899
:102DA00002F06BFDE969022909DD20693B46421802
:102DB00000F1020C31466046521E01F08DFD286A7A
:102DC000022808DDA269E8693B46101A3146401C1A
:102DD000921E01F081FD286802F04FFDD4E9062023
:102DE000216901F09DFC686802F047FDD4E90620E6
:102DF0002169401E491C521E01F092FCA86A02285B
:102E000011DDA1692669E469A1F10208271AA41E4F
:102E1000B61C7F1CA86802F030FD234642463946A6
:102E2000304601F059FD71E0208A00B2ADF814007F
:102E3000A18A09B2ADF81610228B12B2ADF8182093
:102E4000A38B1BB2ADF81A302C69ED68CDE90054A4
:102E500001F02AFC5AE0208A298B0844ADF81400BE
:102E6000A08AADF81600208B298B401AADF8180007
:102E7000A08BADF81A00206801F032F80390006FC3
:102E8000F0B1022002F05CFE039890F87C10C1F3D0
:102E9000C00100EB8100006C02F0EFFC0398406B76
:102EA00002F008FD0398006F01F01AF803990990E9
:102EB000B1F95A2005A901F03DFB09A801F07AF803
:102EC00003A801F077F821E0208AADF81400A08A69
:102ED000ADF81600208BADF81800A08BADF81A00E5
:102EE000A86802F0CAFC05A801F022FD0EE02068E7
:102EF00000F0F6FF039030F85A1F41F00C010180FA
:102F000003A801F057F820680DF0F4FD00206AE6F0
:102F10002403022038B505004FF000040FD001F063
:102F200095FE284600F0DCFF009090F87C0000073A
:102F300000D50124684601F03DF803F02DFA204643
:102F400038BD70B50D46040009D001F07FFE29465A
:102F5000204614F021FABDE8704003F01DBA70BDA0
:102F60007CB50D4604001DD001F070FE204600F037
:102F7000B7FF0090006F0190684601F01BF82946EA
:102F800001A804F0EBF858B1204600F0A9FF00902A
:102F900001990167684601F00DF820460DF0DAFA54
:102FA00003F0FAF97CBD2DE9F34F85B000270C46FC
:102FB000B846059800F094FF0090C06D0121856827
:102FC00005982A68904782462A6803210598904709
:102FD00004902A6802210598904703902A680021EE
:102FE00005989047064600980DF042FF83460098EA
:102FF0000DF045FF8146009890F83210890601D502
:10300000B0F9588000F036F805460098C06E10B14F
:103010000DF003F8074625806780A4F804A0049A01
:10302000ABEB020006EB0802401E2A4420813A4422
:10303000E280039BA9EB0302521E6281A4F80CA05C
:1030400020827019E681401E6082684600F0B2FF5F
:10305000B4F90C000190B4F91000029002AA01A981
:10306000059800F039F80198A0810298208207B0F5
:10307000BDE8F08F10B50146002091F8322092068D
:1030800007D5B1F95400002803D1486B01F066FD63
:10309000801C10BD70B58AB00C46054600F020FFBC
:1030A0000990C06D866809A800F084FF009534B1CE
:1030B000012C06D0022C0BD0032C04D10AE01820DE
:1030C00000E0162001907168684688470AB070BD1C
:1030D0001520F7E71720F5E72DE9FC41174688464C
:1030E000044600F0FDFE0090C16D056868468E68DC
:1030F00000F060FF326800212046904706462046D7
:103100000CF0FBFE27E000BF00F0EAFE0190B0F9F2
:1031100000102AB2B0F90430891A9A1AB0F90230B4
:10312000A3EB2543B34210D190F82800000605D543
:103130003868884209DB491E396006E0D8F800008B
:10314000904202DC521CC8F8002001A800F032FFB7
:1031500020460CF00DFF0400D6D1BDE8FC812DE91E
:10316000F0430446406889B005460CF00EFF8146E6
:1031700000F0B6FE0290D0F84880D0F88070466E1D
:1031800002A800F017FF2068172853D008DC0E288B
:103190003AD00F2811D014284CD015283DD149E041
:1031A0001E281ED01F282AD0222840D0312834D1F2
:1031B0000020E06009B0BDE8F0836FF07041404648
:1031C000884503D007F088FB00F072FF002EF1D095
:1031D000D4E902122068CDE90405CDE9061204A85D
:1031E0001FE0E0680028E5D02FB1AF4203D0384699
:1031F0000DF0FAFBDEE728460DF04AFCDAE721463F
:1032000048460CF036FAD5E7E0684168002904DD4D
:1032100000680928EFD00A2805D05EB12046C4F81E
:103220000490B047C6E728460DF041FCC2E7C4F859
:103230000C80BFE720460CF0EBFCBBE770B53848CC
:1032400088B0016841F080010160016801F08001EF
:103250000691016841F480710160006801A90024B1
:1032600000F4807006908020012681E85100032040
:1032700004902C4804F006F93502CDE901562A4E97
:1032800001A9304604F0FEF8FEF7C6FB00222946ED
:10329000304604F0EAF9142015F032FC01222946E8
:1032A000304604F0E2F9322015F02AFC012269468A
:1032B00000208DF8004000F007F901226946A420A3
:1032C00000F002F91620694601228DF800008020E6
:1032D00000F0FAF80C20694601228DF800008820E1
:1032E00000F0F2F802226946A12000F025F89DF8CE
:1032F0000010302903D19DF80100032808D09DF863
:103300000100012804D0022802D0012008B070BDBD
:10331000C0B200EB012105A0FDF716F80020F5E78B
:1033200030380240001C024000200240435450202C
:1033300049443A25780D0A002DE9F04115460F461B
:103340000446FEF737FC7020FEF7F8FBFEF784FC1E
:10335000E0B2FEF7F3FBFEF77FFCFEF72BFC7120DB
:10336000FEF7ECFBFEF778FC00246E1E09E0B44289
:1033700001D0012000E00020FEF7A8FB3855641CB6
:10338000E4B2AC42F3D3BDE8F041FEF73FBC00002D
:103390002DE9F143484F00244FF00A09474D82B010
:1033A000A0463878401CC0B23870B0FBF9F209FB77
:1033B000120109B10A2864D20122022002A9FFF7F2
:1033C000BBFF9DF8080001075BD000F00F00062846
:1033D00057D2FF214FF001088140C843002640F03A
:1033E000C00085F8200095F8201008FA04F001428A
:1033F0003AD033480422694630F81400FFF79CFFA6
:1034000095F830009DF80010C0079DF8010001F00C
:103410000F010ED000EB012105EB4400C1829DF8A5
:1034200002209DF8031002F00F0201EB02218181BE
:1034300010E000EB012023490988091A05EB44003C
:1034400081819DF802209DF8031002F00F0201EB2C
:103450000221C1829DF800000821B1EB101F03D0AA
:1034600005EB4400C6828681641CE4B2052CBAD305
:10347000A9894FF0010819B9E88A08B98DF80860E0
:103480003E709DF80800C0060ED195F82000010698
:1034900002D520F0800005E04FF6FF71A98100F011
:1034A000E000E98285F820003878F02801D987F813
:1034B00000904046BDE8FE835C0002202800022008
:1034C000FCD40108680602202DE9F04100271546CA
:1034D0000E460446FEF76EFB7020FEF72FFBFEF74C
:1034E000BBFBE0B2FEF72AFBFEF7B6FB002408E0C8
:1034F000305DFEF723FBFEF7AFFB070003D1641C32
:10350000E4B2AC42F4D3FEF781FB3846BDE8F0816B
:1035100010B5002002F0A6F96FF07F4002F0ADF97F
:10352000012002F0EFFA002002F0FAFA002002F087
:1035300007FB002002F0B2F90448006802F0BAF973
:10354000BDE81040002002F0EDB90000DC000220D0
:103550002DE9F043424889B0016841F080010160E3
:10356000016801F080010791016841F480710160F8
:10357000006801AADFF8EC90802500F480700790C5
:1035800000240095012669460327484682E8D000BA
:1035900003F078FF4FF480786946CDE90086324E1B
:1035A000304603F06FFFFEF737FA002241463046FF
:1035B00004F05BF80A2015F0A3FA012241463046D8
:1035C00004F053F80A2015F09BFACDE90054CDE938
:1035D00002476946484603F055FF642015F090FA0B
:1035E000042248F2401005A900F056F805A98DF80C
:1035F00018401EA0FCF7A8FE1FA105A8FDF734F98E
:1036000018B1012009B0BDE8F083022048F240055E
:1036100001228DF8140005A9284600F079F901224D
:10362000E81D05A900F038F89DF8141060290BD2A8
:1036300013A0FCF789FE17488088A0F5AA4110392D
:1036400002D1012000F03EF90A2015F059FA0122BA
:10365000284605A98DF8144000F05AF90020D1E75A
:1036600030380240001C02400020024043545020E9
:1036700049443A25730D0A003931343700000000FF
:1036800044656661756C74205665723A25640D0A4E
:1036900000000000680602202DE9F04115460F46A3
:1036A0000446FEF787FA2820FEF748FAFEF7D4FA18
:1036B000200AFEF743FAFEF7CFFAE0B2FEF73EFA31
:1036C000FEF7CAFAFEF776FA2920FEF737FAFEF778
:1036D000C3FA00246E1E09E0B44201D0012000E0CC
:1036E0000020FEF7F3F93855641CE4B2AC42F3D382
:1036F000BDE8F041FEF78ABA2DE9F14F6D4E002486
:103700004FF00A0B6C4D82B0A1463078401CC0B21D
:103710003070B0FBFBF20BFB120109B10A2873D227
:1037200048F24E170122384602A9FFF7B5FF9DF86F
:1037300008004FF0000801060AD500F00F00062827
:1037400006D20122384601A98DF8048000F0E0F885
:103750009DF80800010757D000F00F01062953D249
:10376000FF20564F4FF0010988408DF80400C043F8
:1037700095F820A040F0C00085F82000A889A88214
:10378000E88AE88395F8201009FA04F001424ED047
:103790004B480422694630F81400FFF77DFFB888D3
:1037A000A0F5AA41103904D0A0F58641423916D0BF
:1037B0003DE095F83000C00715D09DF801109DF848
:1037C000000000EB012105EB4400C1829DF80320BD
:1037D0009DF8021001EB0221C1F5487126E095F831
:1037E0003000C00711D09DF801109DF8000000EBDB
:1037F000012105EB440081819DF803209DF8021012
:1038000001EB0221C18212E02CE09DF801109DF82D
:10381000000000EB012105EB4400C1829DF803206C
:103820009DF8021001EB0221C1F588718181641CB1
:10383000E4B2052CA6D3A9894FF001093A8828469D
:10384000914203D8C18A7A88914209D99DF808101B
:1038500001F00F0101290CD9C1898181018BE98215
:1038600086F800809DF8080000F08F0080280AD0BC
:1038700018E0818A8181C18BC18280218DF8081076
:1038800085F820A0EEE795F82000010602D520F08B
:10389000800005E04FF6FF71A98100F0E000E982A9
:1038A00085F820003078F02801D986F800B0484625
:1038B000BDE8FE8F5D00022028000220680602207D
:1038C000BED5010808B500218DF800108DF8010063
:1038D0000E489DF80020435C491CC9B2B8291A441F
:1038E0008DF80020F5D3D0B20849C043401C8DF8B4
:1038F0000000B82248F2470000F00AF802226946A8
:1039000048F2FF0000F004F8002008BD06D50108C9
:103910002DE9F041002715460E460446FEF74AF908
:103920002820FEF70BF9FEF797F9200AFEF706F9B3
:10393000FEF792F9E0B2FEF701F9FEF78DF90024E7
:1039400008E0305DFEF7FAF8FEF786F9070003D1CC
:10395000641CE4B2AC42F4D3FEF758F93846BDE833
:10396000F0810000014AC2E9000170478C0002208A
:10397000014AC2E90001704794000220014AC2E9ED
:10398000000170479C000220014AC2E90001704713
:10399000880102202DE9F04FDFF828B191B04FF0F7
:1039A000FF35DBF80030B3F922100691DE69B3F978
:1039B0002490F469A189814206D8E289824203D326
:1039C000471AD4F8008012E0D4E9018100296FD0B1
:1039D0000A8882426CD84D88854269D3801A82B2A7
:1039E000486800EB8200B0F90070B0F90250781C12
:1039F0005ED0307EA17C10FB01FA217CCDE907016D
:103A0000B3F92A60304607F049F8C0B20E90DBF8EF
:103A1000000007FB0A81A37C826B0127CDE9041219
:103A2000CDE90273C069089AC17E807ECDE90001AC
:103A3000DDE90603494605F00BFF681C18D046F087
:103A4000020007F02BF8DBF80000A37C05FB0A81DD
:103A5000826BCDE90273CDE90412C069089AC17E78
:103A6000807ECDE90001DDE90603494605F0F0FE60
:103A7000DBF800005D46C069417E007E814214D9BA
:103A8000022E12D086F0040007F008F82868C069FA
:103A9000027EC37E12FB0391437E857E089A0698C0
:103AA0004B4412FB050206F00DFA0E9806F0F6FFE5
:103AB000DBF80000627C418C1144418411B0BDE808
:103AC000F08F0000E000022004480068C069C0696F
:103AD00009B1027C0A60407C70470000E0000220CF
:103AE000022008807047C06982898A4202D8C28950
:103AF0008A4210D2806880B102888A420DD84388F9
:103B00008B420AD3406800EB8100A0EB8200B0F941
:103B10000000002801DB01207047002070470000F2
:103B20002DE9F043304C034687B020681946B0F9C0
:103B30002A60C069C06900F086F8002850D041684A
:103B40000088181A01EBC0053046AF7806F0A6FFD2
:103B5000814620686A680123816BCDE90237CDE98F
:103B60000421C169CB7E8A7ECDE900230B7EB0F9AA
:103B700024102A78B0F9220005F06AFE2068C06996
:103B8000417E027E91421FD9C07E11FB00F812FBDC
:103B900000F7022E18D000F066FF064600F02CFF5A
:103BA00001F06BFE21682A78CB69B1F92200DB7E37
:103BB00012FB0302B1F9241001EB0803394406F0AB
:103BC00081F9304601F059FE484606F067FF20684B
:103BD0006A78C369B0F922109B7E12FB03114184FD
:103BE00007B0BDE8F0830000E000022030B50F4CC4
:103BF00005460B4620682946C069C06900F023F8D5
:103C0000002812D04168008824682A1A0120E4693B
:103C100000EBC200085CA47E10FB04F0002B04D073
:103C200011F8321011FB04F1196030BDE0000220E0
:103C300001200880704700B5C06900F004F8002832
:103C400000D0012000BD06E002888A4202D84288E6
:103C50008A4202D280680028F6D1704770B50025EC
:103C6000124C19E020691249C5EB051600EBC6009D
:103C700070220968001DFCF796FD2069002140F8BC
:103C8000361000EBC60000F10C018161011D0A1D18
:103C9000C0E90F126D1C4164A0688542E2DB00F0B0
:103CA000D5FFBDE8704002F077BB00006002022043
:103CB000E000022070B50F490D480860084603F087
:103CC00045FA0C4C143CA068C0EB0010C500284617
:103CD00000F078F82A460021206103F0B0FA4FF096
:103CE000FF30206002F0A1FBBDE8704012F006BB7F
:103CF000196D01087402022010B5040009D000F00B
:103D0000A5FF20460DF066FD044602F045FB204667
:103D100010BD002010BD38B5054600F097FF2846BD
:103D2000FFF7EAFF040009D000F0DAF82A46002184
:103D3000009003F084FA684600F03CF902F02CFB96
:103D4000204638BD024A106021F0030050607047E1
:103D5000DC73052010B5040016D000F077FF0B4887
:103D6000406B10F8341059B1022909D2042101EB3B
:103D7000C401415848680DF0E5FC204613F0FAF9FB
:103D8000BDE8104002F008BB10BD00001C73052008
:103D9000002805D0034AD16B016001B14860D063AF
:103DA000704700001C73052010B5044600F04EFF5C
:103DB0002068FFF7CFFF00202060BDE8104002F030
:103DC000EBBA00002DE9F041044612F0E9FC284866
:103DD000E41C24F00305016C2D1DA94200D90D46F9
:103DE000C46B13E054F8042CAA420ED184B12168AC
:103DF00009B162684A60616809B122680A60C26BF1
:103E0000A24231D12168C1632EE02468002CE9D19F
:103E10008046816BC0680F1857F8040C3E1A306852
:103E200038B1002013F028FA57F8040C3E1A306815
:103E3000D0B97068A84217DB3044441B3046241DBB
:103E400013F0D2F9D8F80C10491BC8F80C10D8F8A8
:103E500014102944C8F814107068401B02D0314671
:103E60000DF070FC44F8045C2046BDE8F0810000D1
:103E70001C73052010B5002412F092FC0C490F2091
:103E800001EBC002526C1AB101EBC000406C08E0BB
:103E9000401EF5D508E04168A14200D90C46806873
:103EA00010B180680028F6D1A4F10C0010BD00000C
:103EB0001C730520002138B10449042202EBC00024
:103EC000496B085841680C39084670471C73052037
:103ED00002488169491C8161704700001C730520FC
:103EE0000549CA69521CCA61496B01EBC0010A78D5
:103EF000521C0A7000F076B81C7305207CB506468B
:103F00000C460846FFF7F8FE050020D0FEB130460B
:103F1000FFF7D0FFA04200DA044600F097FE2846E3
:103F2000FFF7DEFF00903046FFF7DAFF0146019011
:103F300022460098FCF7B0FB684600F03BF801A869
:103F400000F038F83046FFF705FF02F025FA284662
:103F50007CBD000010B500F079FEFFF78BFF6422F6
:103F60000849B0F5800F04D990FBF2F4086A444385
:103F700003E0096A4143B1FBF2F402F00DFA204676
:103F800010BD00001C7305200549102805D94A689A
:103F9000B0EB520F02D3500800E010208860704749
:103FA000DC73052002488169491E81617047000069
:103FB0001C7305200A4902684B6B52F8082C03EB6E
:103FC000C2021378022B03D3CB690BB15B1ECB610A
:103FD0001178491E117000210160084670470000E9
:103FE0001C730520002806D00349042202EBC00000
:103FF000496B0858083070471C73052070B514468B
:104000000D46064600F022FE204600F039FD030072
:10401000174804EB840109D050F8210041688068FA
:10402000711A2A1A184601F06DFC1CE000EB81049D
:10403000A268B24201D0012200E00022E368AB4254
:1040400001D0012300E000231A430CD0236943B1BF
:1040500050F82100816840686A1A311A184601F048
:10406000BDFBC4E90265BDE8704002F095B90000EF
:104070002075052010B5C2B2CBB2D21A00D552427B
:1040800093B25B43C0F30722C1F30724121B00D590
:104090005242000C92B2A0EB114002FB023200B27D
:1040A000002801DA404200B280B200FB002010BDBF
:1040B00010B50021084600F067FD43F6FF7250423C
:1040C000BDE8104013460146AFF300802DE9FC41E6
:1040D0001C4615460E46074600F0B8FD042006F0C3
:1040E000DDFC80461248C068C16C006D0F44064478
:1040F0000D440444ADF80070ADF80450ADF8026012
:10410000ADF8064068460CF0C1FE07E023462A469B
:104110003146384605F0D6FE0CF06CFE0028F5D18D
:10412000404606F0BBFC02F037F9BDE8FC81000018
:10413000D4000220B0F90630B0F90420B0F9021022
:10414000B0F90000FFF7C2BF2DE9F8431C00DDE91C
:10415000089816460F46054602D10BF0A7FE044606
:1041600000962E6843464A4621462846B047060038
:1041700039D00BF090FE8146698A30460BF00DFB7A
:1041800030460CF00FFD48460CF00CFD4FF00008D7
:104190000CE000BFCDF8008055F81CCF00231A4674
:1041A00049462846E04700B30CF0FCFC7F1E002F78
:1041B000F0DC1D2148460CF072FB601C12D000F0B0
:1041C00045FD0BF0A7FE30B1FFF70CFF8469B44248
:1041D00001D02000F8D1B44202D030460CF058FC97
:1041E00002F0DAF83046BDE8F88330460BF048FDBF
:1041F0000020F8E72DE9F0411C4616460D4607461B
:10420000022B02DB0020BDE8F0811C20FFF7DAFD65
:104210000028F8D00DB105610AE0094A52F82410CF
:1042200009B905E011460A68002AFBD10969016154
:1042300084618682002101604160C0E90217E2E7E3
:10424000F800022070B51D46FFF7D4FF040009D026
:1042500000F00EF8E068006820B90348006800EB41
:1042600085008465204670BDE0000220FFF790BD08
:1042700070B590B38269022A30DA1E4C54F82210CD
:1042800019B944F8220032E019464B68002BFBD1E3
:1042900006E0CB68C5681B682D68AB4203DD096882
:1042A0000029F6D11AE0C1B1CB68C6681B68366830
:1042B000B3420CD1838A012B05D008E01946DB6894
:1042C0001B68AB4203DB0B68002BF7D129B14B68AD
:1042D00033B118604A68426004E0FFE7012070BD16
:1042E00044F822004860884200D10021016000208B
:1042F00070BD0000F800022010B503E00468FFF76D
:10430000B7FF20460028F9D110BD13F059BE0000B8
:104310002DE9F0410026DFF834800D4F354600BF0F
:1043200058F8254009E0E0680068385C20B1204674
:1043300013F046FE266026462468002CF3D16D1C3F
:10434000022DEDDB3046BDE8F0810000F8000220D0
:1043500004D70108022801DB00207047054A52F803
:10436000200004E0C26812688A42F6D00068002883
:10437000F8D17047F8000220022801DB00207047C6
:10438000054951F8200004E0C16809680029F6D009
:1043900000680028F8D17047F80002202DE9F041AC
:1043A000044602F03BF806191EE000BF00F072FA66
:1043B000052F00DD052700F049FC11480568FFF7CF
:1043C00087FD2C0017D000BF01F0E6FF641EFBD173
:1043D000384602F015F81DB100F038FC6D1EFBD117
:1043E000FFF7E0FD01F0D8FF02F018F8371A002FB0
:1043F000DCDCBDE8F081384602F002F8F0E70000AE
:104400006C0202202DE9FC4706005FD000F01EFC84
:1044100000F04CFB3C4C81462068B0F9228000F053
:104420007FFB216807468A8CD01B888441E000BF4F
:1044300047F6FF71304602F01FFD824601463046C6
:1044400002F0F0FC2168054691F82C0000F0030012
:10445000012841D002283BD000204A8C101A488401
:10446000ADF800006A1E1044ADF80400888CADF869
:104470000200A9F101010844ADF806006A46514660
:10448000304602F0ABF92168BDF80200888451463D
:10449000304601F06FFE064430780A281ED00D2801
:1044A0001CD0BDF80000216828444884307818B139
:1044B000761C30780028BBD12068818C39448184F7
:1044C000818D21F00301818501F066FFBDE8FC8745
:1044D00005EBD5704010C0E72846BEE7206890F88D
:1044E0002C1001F0030101290BD0022909D0018C05
:1044F000418431780A29D9D1828C02EB0901818467
:10450000D4E7A0F82280F4E7E000022070B514465A
:104510000D46064600F09AFB0548006845848484F1
:104520003046FFF76FFFBDE8704001F035BF000077
:10453000E000022047F6FF73AFF300802DE9FC4155
:104540001F4690460D4606004FF000041AD000F0BA
:104550007DFB65B128460CF015FB040007D0024630
:104560002946684602F0F5FC68460CF00BFB3B461A
:1045700042462946304602F089F920460CF002FBFB
:1045800001F00AFFBDE8FC812DE9FF4F87B090469E
:10459000894607007DD000F059FBD9F80040D9F8D2
:1045A000045021B228B2401A401C029000F07EFA5A
:1045B000064618F00C0F1ED038460A9A029901F0F0
:1045C000F5FE08F00C01042904D0082902D00C29BA
:1045D00011D104E0291400FB1610401C09E021143D
:1045E000C1EB254200FB1620401C00EBD07001EB14
:1045F000600060F31F4448460CF0C4FA5FEA000B09
:1046000009D00246494604A8CDE9044502F0A1FCC0
:1046100004A80CF0B7FAA6F1010A38460A9A0299E2
:1046200002F0DCFD03900AEB244060F31F45CDE966
:1046300000453846039902F0F5FB18F003010ED04F
:1046400001292CD002290ED1B9F90420B9F90010A2
:10465000521A101A00EBD07001EB600001E0B9F8BB
:104660000000ADF800006A463846039902F0B6F83B
:1046700038460A9A029902F0A7FD074406EB244047
:1046800060F31F4438780028C7D158460CF07AFAF6
:1046900000E001E001F080FE0BB0BDE8F08FB9F85A
:1046A0000410081A401CDCE72DE9F04F87B09B4648
:1046B000DDE9109892460C46054600F0C7FA164808
:1046C0000168C86C096D47190E1900EB0A0501EB6A
:1046D0000B04ADF81070ADF81450ADF81260ADF8E1
:1046E000164004A80CF0D2FB88B1DFF830B04FF0D0
:1046F000010ACDE90098CDE902BA23462A4631469F
:10470000384610F01BFA0CF075FB0028F1D101F0CF
:1047100043FE07B0BDE8F08FE00002203D9B00089B
:104720002DE9FC4114460D46064600F08FFA114F64
:104730003968C86C096D054404440E44ADF8005056
:10474000ADF80440ADF80260ADF8066068460CF0C4
:104750009DFB08E0386822463146406E03682846D3
:1047600098470CF047FB0028F4D101F015FEBDE896
:10477000FC810000E00002207CB50C46064600F0FB
:1047800065FA0F4D2868C16C006D0E440444ADF805
:104790000460ADF80060ADF80640ADF80240684630
:1047A0000CF074FB07E028682146406E42683046F2
:1047B00090470CF01FFB0028F5D101F0EDFD7CBD0A
:1047C000E00002202DE9FC411C4616460D46074636
:1047D00000F03CFA1A480168087ECA6C096D17445B
:1047E0000D440C44401E391A1644ADF8001031181F
:1047F000ADF80410291A2044ADF80600ADF80210F7
:1048000068460CF043FB15E032462946384605F071
:1048100095F932462146384605F090F9621E691C2A
:10482000384605F04FFA621E691C304605F04AFA18
:104830000CF0E0FA0028E7D101F0AEFDBDE8FC8104
:10484000E00002207CB514460D46064600F0FEF955
:104850000F480068C16C006D0E4405440444ADF877
:104860000060ADF80460ADF80250ADF8064068464F
:104870000CF00CFB06E022462946304605F022FAF1
:104880000CF0B8FA0028F6D101F086FD7CBD0000DE
:10489000E000022010B5002400E0012400F004F83C
:1048A0000028FAD1204610BD094810B50068002440
:1048B00010B1804700B101240BF06CFA00B1012463
:1048C0000448006810B1804700B10124204610BDA3
:1048D00004010220000102202DE9FC411C4615467E
:1048E0000E46074600F0B2F910480068C16C006D32
:1048F0000F4406440D440444ADF80070ADF8045074
:10490000ADF80260ADF8064068460CF0BFFA07E06B
:1049100023462A463146384605F0D4FA0CF06AFAA6
:104920000028F5D101F038FDBDE8FC81E00002204F
:10493000B0F90630B0F90420B0F90210B0F9000067
:10494000FFF7CABF08B50B46002805D00092818842
:104950008268C08800F001F808BD10B50828029CE4
:1049600030D008DC04FB01F401280AD0022813D05F
:10497000042804D11CE0102828D020282CD00020A6
:1049800010BD04EBD30003F00701105CC1F1070177
:10499000C84000F0010010BD04EB93000621105C3C
:1049A00001EA4301C1F10601C84000F0030010BD57
:1049B00004EB5300D907105C02D000F00F0010BDCB
:1049C000000910BD04FB0130105C10BD481004FB51
:1049D000003032F8100010BD881004FB003052F88F
:1049E000200010BD034951F82000C1688A6A0821DF
:1049F00010470000F800022010B500F027F905F07C
:104A000091FA05F03FFB044601F0C6FC204610BDBC
:104A100010B5044600F01AF9054800210068C06985
:104A2000426820469047044601F0B6FC204610BD7F
:104A3000E000022070B50C46054600F007F9064874
:104A400021460068C069426828469047044601F044
:104A5000A3FC204670BD0000E0000220002801D029
:104A60000BF0F6B9704710B500F0F0F805F062FAF7
:104A700005F008FB044601F08FFC204610BD000045
:104A80000021022802D2024951F82010084670473E
:104A90004801022010B500F0D9F803480068047CF2
:104AA00001F07AFC204610BDE000022010B500F0B5
:104AB000CDF804480068C069447E01F06DFC2046D2
:104AC00010BD0000E000022070B514460D460646F9
:104AD00000F0BCF822462946304605F071FA10B1C4
:104AE000002028602060BDE8704001F055BC70B522
:104AF0000C46054600F0AAF82146284602F0E6F9E1
:104B0000BDE8704001F048BC10B5044602F0D0F991
:104B100001462046BDE8104002F084B901F07EBC99
:104B200010B5002400F092F80B48006890F82C10A3
:104B300001F00C01042904D0082906D00C2907D162
:104B400003E0C069047E641E02E0C069007E440880
:104B500001F022FC204610BDE0000220017EC07E54
:104B600011FB00F070470000024951F82000006975
:104B700000687047F8000220024951F820000069DF
:104B800040687047F800022070B50D46044600F0FA
:104B90005DF8204611F02CFC0446284611F030FC4C
:104BA000044301F0F9FB204670BD000010B501F090
:104BB00045FD0A492E20087001F036FC084811F026
:104BC000B7FD05F0D0FA04460021084600F0B8FE13
:104BD0000BF016FCFFF742F8204610BDD40002206F
:104BE000E87305202DE9FC411C4615460E46074694
:104BF00000F02CF8012000F051FE804612480068B9
:104C0000C16C006D0F4406440D440444ADF80070BF
:104C1000ADF80450ADF80260ADF8064068460CF0FF
:104C200035F907E023462A463146384605F04AF969
:104C30000CF0E0F80028F5D1404600F02FFE01F01E
:104C4000ABFBBDE8FC810000E000022070B5184C11
:104C5000E06820B101F0DFFB6168884204D001F018
:104C6000E5FB01F0D8FB6060E068401CE0600128D3
:104C70001CD111F043FB05462068854216D0002860
:104C800013DBFFF745FB01462068C0EB00122069EB
:104C900000EBC2025167C5EB0511064A00EBC100EB
:104CA000011D1160406FFFF727FB256070BD0000FC
:104CB00060020220E00002201CB5040004D10E486E
:104CC0000068046E002C16D0FFF7C0FF2046FFF7E7
:104CD00007F9009044696846FFF76CF94CB120462B
:104CE000FFF7FEF8019081688968884701A8FFF7FF
:104CF00061F901F051FB1CBDE000022001490A46A8
:104D000000F002B801F0FFFF2DE9F04387B015462F
:104D10000C465FEA000846D0FFF798FF002000F03D
:104D2000BDFD814621480068066E4046FFF7D8F871
:104D300000900068806900F079FD074640F6FF703A
:104D4000C44204D10098B0F90440B0F9065000986C
:104D5000611E0289ADF804401144ADF80810418984
:104D6000681E0844ADF80650ADF80A000AF012FEBD
:104D70006846FFF71FF901A80CF088F806E02A46FC
:104D80002146404600F082FB0CF034F80028F6D1B2
:104D9000384600F04BFD304600F08AF9484600F0F6
:104DA0007DFD01F0F9FA07B0BDE8F083E0000220D4
:104DB0002DE9FE4F984691468A46834600270C9E71
:104DC000FFF744FF184819490068407C51F820401B
:104DD000E1680968042903D02468002CF8D100E0B8
:104DE0001CB9FFF7C9FA04001BD0E0680121C26AB0
:104DF00020469047050011D02469A0688047401CD8
:104E000002D10B4C46F001060096CDE90154434611
:104E10004A465146584600F0DFF9074601F0BCFA11
:104E20003846BDE8FE8F0000E0000220F8000220B6
:104E30002811020838B504001CD0FFF707FF0E4800
:104E40000068006EA04201D100F0E2FC2046FFF7AE
:104E500047F80090406908B101F087FA00980068AF
:104E6000FFF704FA6846FFF7A5F82046FEF772FF41
:104E700001F092FA38BD0000E00002202DE9FF4F5A
:104E8000DFF83891074683B0D9F800009A468B4680
:104E9000447C4B4800570128204606DD05F0BAF84F
:104EA0000546204605F0C2F805E005F0A2F80546E3
:104EB000204605F0A4F804461FB302A901A8FFF795
:104EC00016FEB7F90000002800DA0020B7F90260EA
:104ED0008046002E00DA002601984119B7F9040037
:104EE000491E11F03CFE054602980119B7F906006B
:104EF000491E11F034FEA5EB0802841B521C641CF1
:104F000003E04FF0000846462A46BAF1000F01D1EF
:104F1000C4F1000A002A4FDD002C4DDD10980090EE
:104F2000534631464046FFF743FF5FEA000A10D080
:104F300000F078F80746A04206D0D9F80000806C4F
:104F400010B132210CF03CFB504600F0B1F80025C6
:104F500021E0594605988847012007B0BDE8F08F49
:104F6000611BB94202DA504600F086F83DB1721971
:104F70004146504600F0C4F85046FFF79DFE5946A2
:104F8000059888470F48016809B1002088475046B6
:104F9000FFF7B4FE3D44A542E2DB5046FFF74AFF6F
:104FA000002000F085F8A74206D0D9F80000806CF8
:104FB00010B133210CF004FB0020CEE7E00002200A
:104FC00018010220A402022038B505004FF00004A9
:104FD00011D0FFF73BFE2846FEF782FF00900068E5
:104FE00000698068804706F05BF904466846FEF772
:104FF000E1FF01F0D1F9204638BD38B504000ED0EC
:10500000FFF724FE2046FEF76BFF00F11804009026
:105010006846FEF7CFFF01F0BFF9204638BD0020FB
:1050200038BD000038B504460025FFF70FFE1CB957
:1050300008480068046E44B12046FEF751FF009016
:10504000B0F90A506846FEF7B5FF01F0A5F9284609
:1050500038BD0000E000022070B505460024284657
:105060000CF062FF641C18B1BDE8704000F07AB823
:10507000052CF4DB70BD000038B50C46050004D1EA
:105080000A480068056E002D0FD0FFF7DFFD2846A7
:10509000FEF726FF0090B0F90A10A14200DD44811E
:1050A0006846FEF787FF01F077F938BDE00002207F
:1050B000F8B50546FFF7CAFD104E3068046ECDB155
:1050C0000CB100F0A5FB0AF093FD2846FEF708FF9F
:1050D000009031680D660068FFF7CAF86846FEF771
:1050E00069FF05F021FE05F021FC00BF01F054F935
:1050F0002046F8BD00F08CFBF8E70000E00002203D
:105100007CB515460E46040004D115480068046EAF
:10511000002C24D0FFF79AFD2046FEF7E1FE2DB2C9
:105120000090C58034B2848005F000FC009840698E
:1051300080B1FEF7D5FE009A0190B2F90810818087
:10514000B2F90A20C28011B10AB10480458001A8D9
:10515000FEF730FF6846FEF72DFF01F01DF97CBD1C
:10516000E000022001490A4600F002B801F0FFFF0A
:105170007FB515460C4606002DD0FFF767FD30467B
:10518000FEF7AEFE40F6FF710190CC4203D1B0F9BC
:105190000440B0F906500289611E1144ADF8084080
:1051A000ADF80C104189681E0844ADF80E00ADF84A
:1051B0000A5001A8FEF7FEFE02A80BF067FE06E00B
:1051C0002A462146304600F049F90BF013FE00282C
:1051D000F6D101F0E1F87FBD2DE9FF4FDFF8E8B02F
:1051E00083B01C46DBF80010DDE9106092464FF0FA
:1051F00000084B7C42461299FEF7FCFF050060D088
:1052000028698068804706F04BF881460AFB09F15F
:10521000C91DCF08FEF79EFEF10705D1C11700EBAF
:105220009170801000EB4000002C09DC1FB1183891
:10523000B0FBF7F000E000206442A04200DC04462E
:10524000F00707D10090DDE903012346524601F043
:1052500011F88046002C03DC2846FFF707F830E001
:1052600004FB07F01830F10702D0FEF745FD01E01E
:10527000FEF751FD06001CD0FEF732FE01900560DE
:10528000039981800499C180A0F808A04481C0F8E6
:105290001480C0E9037901A8FEF78CFE1298AE6075
:1052A0002861DBF80000407CA861304607B0BDE80B
:1052B000F08F2846FEF7DAFF5FEA080001D0FEF71C
:1052C00049FD0020F2E70000E00002202DE9F74F41
:1052D0008EB0144689460E98FEF702FE0990B0F98A
:1052E00008B0B0F90A600068006940680C9009A82D
:1052F000FEF760FE564D574F2868407C57F8200057
:10530000C1688A6A082190470790182801D3202095
:1053100007902868407C57F820000069069003C871
:105320000B904D48814201D0012000E000200A90FE
:10533000002001F07DF800287DD1286809EB0B01E1
:10534000B0F90C20891A491E002902DDABEB0105DA
:1053500000E05D46B0F90810494505DDA1EB090103
:1053600089446D1A089101E000210891002D6BDD40
:10537000B0F90E20A119891A491E002902DDA6EBF9
:10538000010800E0B046B0F90A00A04204DD061BA7
:105390003444A8EB060800E00026B8F1000F53DD06
:1053A000089801900DA95F46DDF830A00E98009195
:1053B000FFF723FE774300EB870101982B4601EBB3
:1053C000800200994846CDE900A1214601F000FB8A
:1053D0000090002838D00A98E8B1DDE90632294665
:1053E000009801F025F9B0B90698009FDA46D0F888
:1053F00010C0BCF1000F05D004235A463946384688
:10540000E04708E00B993868884701C7AAF1010016
:105410005FEA000AF6D100990020079ACDE903015E
:10542000059001200090CDE9010221460346641C4D
:105430002A46484600E007E004F00AFAA8F1010015
:10544000761C5FEA0008ABD111B0BDE8F08F000018
:10545000E0000220F800022007A10008F8B5154678
:105460000E460746FEF73CFD009000681621C06816
:10547000426A0020904704466846FEF79BFD002CD8
:1054800003D02A4631463846A047F8BDF8B516463F
:105490000F46050012D0FEF723FD009044696846D0
:1054A000FEF788FD2846FFF78FFD0346082800DD3C
:1054B0002CB132463946284612F0B6FDF8BD3246C8
:1054C0003946284612F050FFF8BD00000248006837
:1054D000407C00F003B80000E0000220F8B51D4950
:1054E000096809B1002200E002461B498D56012DD2
:1054F0002EDD1849143151F822305B1C41F822305E
:10550000012B25D1A1F108030026103953F82240C0
:1055100051F8221053F822707F1C43F82270AF42DA
:1055200001D143F8226053F822708F42F2D03D46F9
:10553000FEF722FF009000280AD0C0682121426AAD
:1055400068469047030003D02A46214600989847B2
:10555000F8BD00002401022018010220044A12684C
:1055600002B10020002900DC0121024A11547047D9
:105570002401022018010220094A126802B1002009
:10558000074A1C3252F82030002B07DBA2F1180327
:1055900043F820104FF0FF3142F820107047000010
:1055A0002401022002480068407C00F003B800009B
:1055B000E000022038B51449096809B1002200E072
:1055C00002461249895601291CDD0F49143151F850
:1055D00022305B1E41F8223014D1083951F82240A4
:1055E000103141F82240FEF7C7FE0090002809D094
:1055F000C0682221426A68469047020002D02146D4
:105600000098904738BD00002401022018010220B4
:1056100010B5002821D009B30AB3B1F90040B2F99E
:1056200000309C4200DA23460380B1F90240B2F90F
:1056300002309C4200DA23464380B1F90440B2F9BB
:1056400004309C4200DD23468380B1F90610B2F994
:105650000620914200DC1146C18010BD11460A6847
:1056600002604968416010BD00280BD003880B44DC
:105670000380838819448180418811444180C18816
:105680001144C1807047000070B50E4D0446D5E945
:105690000001884209D10C49884201D13C3000E028
:1056A0000C3807C884E8070006E090E80E0084E89C
:1056B0000E0010F0BBFE2860207A002800D00120E8
:1056C00070BD000004030220487505200448D0E99D
:1056D0000010814201D10120704700207047000076
:1056E00004030220054A10B50349116012F07EFB45
:1056F000BDE8104000F034BA49000108080102205A
:1057000070B50025FFF7A2FA094CD4E900208242C7
:105710000AD0D2E90056104610F092FE20603146C1
:1057200028460AF0B3FF012500F036FE284670BD7A
:10573000500202202DE9FC41154DDDE908742D6869
:10574000B5F90860864200DD3046B5F90C60964236
:1057500000DA3246824219DBB5F90A608E4200DD7A
:105760003146B5F90E509D4200DA2B468B420DDBD7
:1057700000E02C46E5682D6825B1042D02D025688F
:10578000002DF6D1CDE9007404F0B4FEBDE8FC8133
:10579000E0000220B0F90220B1F906309A4213DC91
:1057A000B1F90220B0F906309A420DDCB0F90020C0
:1057B000B1F904309A4207DCB1F90010B0F90400E5
:1057C000814201DC012070470020704701460248F9
:1057D00070220068FAF7E7BFE000022070B51546B6
:1057E0000E4604000AD0FFF731FA2A463146204619
:1057F00012F042F8BDE8704000F0CEBD70BD000070
:10580000024970220968FAF7CEBF0000E0000220CA
:1058100010B5FFF71BFA05F03FF805F085FA0AF01E
:10582000B9F8BDE8104000F0B7BD000070B50B4DF1
:1058300004462868467CFFF709FA022C09D2204664
:10584000FEF79AFD28B128684474FFF7E1FF044889
:10585000046000F0A1FD304670BD0000E0000220B1
:10586000CC01022010B50446FFF7F0F9204605F000
:1058700033F8BDE8104000F08FBD10B50446FFF7C7
:10588000E5F9204605F060F8BDE8104000F084BD61
:105890000149886070470000D400022010B504461A
:1058A000FFF7D4F9204605F0F9F8044600F074FD3E
:1058B000204610BD70B50446FFF7C8F904480068DB
:1058C000C56904B1C46100F067FD284670BD0000E1
:1058D000E00002200149C86170470000A4000220D6
:1058E0000149486070470000D40002200149086067
:1058F00070470000A4000220014948607047000082
:10590000A400022070B514460D460646FFF79EF926
:1059100022462946304605F0DDF8044600F03CFDFD
:10592000204670BD70B50546FFF790F90348006842
:10593000847E857600F030FD204670BDE0000220B8
:1059400070B50C460546FFF781F9094822460580E7
:105950000848048008480068417C084850F8210045
:10596000C1680B6A29469847BDE8704000F014BD35
:105970002001022022010220E0000220F800022083
:1059800002490968497C00F003B80000E0000220E9
:1059900070B505460C46084604F0C0FA082801DA3E
:1059A000074A07E001D1074A04E0102801DC064A53
:1059B00000E0064A21462846BDE8704000F008B8DD
:1059C000A0060208C0060208E00602080007020856
:1059D0002DE9F05F0F460646914600213846FEF756
:1059E000B9FC04007CD03F49E06888420DD1A5682D
:1059F000686808B1FEF7CCF92846FEF7C9F92046D9
:105A0000FEF783FC2046FEF731FC002E68D03846B6
:105A100004F000FB8346384604F008FB8246384613
:105A200004F0E7FA0546384604F0E9FA80463846BD
:105A3000FEF7A2FC002853D001693B460122294809
:105A4000FEF7D8FB07004BD0FEF712FC2C20FEF728
:105A5000B9F9B86088B1C0E905BA0446C0F8289021
:105A60000661C4E907584FF0FF30082E1BD2DFE86B
:105A700006F01A0B0D121517282A3846FEF745FCBA
:105A80003846FEF7F3FB2BE0174905E01748206086
:105A90000120606207E016492160FAE7154800E03E
:105AA000154865622060D9F81C0038B16843E06091
:105AB00000FB08F0FEF786F9606040B10020BDE809
:105AC000F09F0E4800E00E4820606842E1E738464B
:105AD000FEF71BFC3846FEF7C9FB2046FEF758F9D7
